{
  "_format": "hh-sol-artifact-1",
  "contractName": "AirdropTracker",
  "sourceName": "contracts/AirdropTracker.sol",
  "abi": [
    {
      "inputs": [],
      "stateMutability": "nonpayable",
      "type": "constructor"
    },
    {
      "inputs": [],
      "name": "EnforcedPause",
      "type": "error"
    },
    {
      "inputs": [],
      "name": "ExpectedPause",
      "type": "error"
    },
    {
      "inputs": [
        {
          "internalType": "address",
          "name": "owner",
          "type": "address"
        }
      ],
      "name": "OwnableInvalidOwner",
      "type": "error"
    },
    {
      "inputs": [
        {
          "internalType": "address",
          "name": "account",
          "type": "address"
        }
      ],
      "name": "OwnableUnauthorizedAccount",
      "type": "error"
    },
    {
      "inputs": [],
      "name": "ReentrancyGuardReentrantCall",
      "type": "error"
    },
    {
      "anonymous": false,
      "inputs": [
        {
          "indexed": true,
          "internalType": "uint256",
          "name": "id",
          "type": "uint256"
        },
        {
          "indexed": false,
          "internalType": "string",
          "name": "name",
          "type": "string"
        },
        {
          "indexed": false,
          "internalType": "uint256",
          "name": "totalAllocation",
          "type": "uint256"
        },
        {
          "indexed": false,
          "internalType": "uint256",
          "name": "perUserAllocation",
          "type": "uint256"
        },
        {
          "indexed": false,
          "internalType": "uint256",
          "name": "registrationDeadline",
          "type": "uint256"
        },
        {
          "indexed": false,
          "internalType": "uint256",
          "name": "distributionDate",
          "type": "uint256"
        }
      ],
      "name": "AirdropCreated",
      "type": "event"
    },
    {
      "anonymous": false,
      "inputs": [
        {
          "indexed": true,
          "internalType": "uint256",
          "name": "airdropId",
          "type": "uint256"
        }
      ],
      "name": "AirdropPaused",
      "type": "event"
    },
    {
      "anonymous": false,
      "inputs": [
        {
          "indexed": true,
          "internalType": "uint256",
          "name": "airdropId",
          "type": "uint256"
        }
      ],
      "name": "AirdropResumed",
      "type": "event"
    },
    {
      "anonymous": false,
      "inputs": [
        {
          "indexed": false,
          "internalType": "uint256",
          "name": "amount",
          "type": "uint256"
        }
      ],
      "name": "FundsWithdrawn",
      "type": "event"
    },
    {
      "anonymous": false,
      "inputs": [
        {
          "indexed": true,
          "internalType": "address",
          "name": "previousOwner",
          "type": "address"
        },
        {
          "indexed": true,
          "internalType": "address",
          "name": "newOwner",
          "type": "address"
        }
      ],
      "name": "OwnershipTransferred",
      "type": "event"
    },
    {
      "anonymous": false,
      "inputs": [
        {
          "indexed": false,
          "internalType": "address",
          "name": "account",
          "type": "address"
        }
      ],
      "name": "Paused",
      "type": "event"
    },
    {
      "anonymous": false,
      "inputs": [
        {
          "indexed": false,
          "internalType": "address",
          "name": "account",
          "type": "address"
        }
      ],
      "name": "Unpaused",
      "type": "event"
    },
    {
      "anonymous": false,
      "inputs": [
        {
          "indexed": true,
          "internalType": "uint256",
          "name": "airdropId",
          "type": "uint256"
        },
        {
          "indexed": true,
          "internalType": "address",
          "name": "user",
          "type": "address"
        }
      ],
      "name": "UserRegistered",
      "type": "event"
    },
    {
      "inputs": [],
      "name": "airdropCount",
      "outputs": [
        {
          "internalType": "uint256",
          "name": "",
          "type": "uint256"
        }
      ],
      "stateMutability": "view",
      "type": "function"
    },
    {
      "inputs": [
        {
          "internalType": "uint256",
          "name": "",
          "type": "uint256"
        }
      ],
      "name": "airdrops",
      "outputs": [
        {
          "internalType": "string",
          "name": "name",
          "type": "string"
        },
        {
          "internalType": "uint256",
          "name": "totalAllocation",
          "type": "uint256"
        },
        {
          "internalType": "uint256",
          "name": "perUserAllocation",
          "type": "uint256"
        },
        {
          "internalType": "uint256",
          "name": "registrationDeadline",
          "type": "uint256"
        },
        {
          "internalType": "uint256",
          "name": "distributionDate",
          "type": "uint256"
        },
        {
          "internalType": "bool",
          "name": "isActive",
          "type": "bool"
        },
        {
          "internalType": "uint256",
          "name": "registeredCount",
          "type": "uint256"
        }
      ],
      "stateMutability": "view",
      "type": "function"
    },
    {
      "inputs": [
        {
          "internalType": "string",
          "name": "_name",
          "type": "string"
        },
        {
          "internalType": "uint256",
          "name": "_totalAllocation",
          "type": "uint256"
        },
        {
          "internalType": "uint256",
          "name": "_perUserAllocation",
          "type": "uint256"
        },
        {
          "internalType": "uint256",
          "name": "_registrationDeadline",
          "type": "uint256"
        },
        {
          "internalType": "uint256",
          "name": "_distributionDate",
          "type": "uint256"
        }
      ],
      "name": "createAirdrop",
      "outputs": [],
      "stateMutability": "nonpayable",
      "type": "function"
    },
    {
      "inputs": [
        {
          "internalType": "uint256",
          "name": "_airdropId",
          "type": "uint256"
        }
      ],
      "name": "getAirdropInfo",
      "outputs": [
        {
          "internalType": "string",
          "name": "name",
          "type": "string"
        },
        {
          "internalType": "uint256",
          "name": "totalAllocation",
          "type": "uint256"
        },
        {
          "internalType": "uint256",
          "name": "perUserAllocation",
          "type": "uint256"
        },
        {
          "internalType": "uint256",
          "name": "registrationDeadline",
          "type": "uint256"
        },
        {
          "internalType": "uint256",
          "name": "distributionDate",
          "type": "uint256"
        },
        {
          "internalType": "bool",
          "name": "isActive",
          "type": "bool"
        },
        {
          "internalType": "uint256",
          "name": "registeredCount",
          "type": "uint256"
        }
      ],
      "stateMutability": "view",
      "type": "function"
    },
    {
      "inputs": [
        {
          "internalType": "uint256",
          "name": "_airdropId",
          "type": "uint256"
        },
        {
          "internalType": "address",
          "name": "_user",
          "type": "address"
        }
      ],
      "name": "isUserRegistered",
      "outputs": [
        {
          "internalType": "bool",
          "name": "",
          "type": "bool"
        }
      ],
      "stateMutability": "view",
      "type": "function"
    },
    {
      "inputs": [],
      "name": "owner",
      "outputs": [
        {
          "internalType": "address",
          "name": "",
          "type": "address"
        }
      ],
      "stateMutability": "view",
      "type": "function"
    },
    {
      "inputs": [
        {
          "internalType": "uint256",
          "name": "_airdropId",
          "type": "uint256"
        }
      ],
      "name": "pauseAirdrop",
      "outputs": [],
      "stateMutability": "nonpayable",
      "type": "function"
    },
    {
      "inputs": [],
      "name": "paused",
      "outputs": [
        {
          "internalType": "bool",
          "name": "",
          "type": "bool"
        }
      ],
      "stateMutability": "view",
      "type": "function"
    },
    {
      "inputs": [
        {
          "internalType": "uint256",
          "name": "_airdropId",
          "type": "uint256"
        }
      ],
      "name": "registerForAirdrop",
      "outputs": [],
      "stateMutability": "nonpayable",
      "type": "function"
    },
    {
      "inputs": [
        {
          "internalType": "uint256",
          "name": "",
          "type": "uint256"
        },
        {
          "internalType": "address",
          "name": "",
          "type": "address"
        }
      ],
      "name": "registeredUsers",
      "outputs": [
        {
          "internalType": "bool",
          "name": "",
          "type": "bool"
        }
      ],
      "stateMutability": "view",
      "type": "function"
    },
    {
      "inputs": [],
      "name": "renounceOwnership",
      "outputs": [],
      "stateMutability": "nonpayable",
      "type": "function"
    },
    {
      "inputs": [
        {
          "internalType": "uint256",
          "name": "_airdropId",
          "type": "uint256"
        }
      ],
      "name": "resumeAirdrop",
      "outputs": [],
      "stateMutability": "nonpayable",
      "type": "function"
    },
    {
      "inputs": [
        {
          "internalType": "address",
          "name": "newOwner",
          "type": "address"
        }
      ],
      "name": "transferOwnership",
      "outputs": [],
      "stateMutability": "nonpayable",
      "type": "function"
    },
    {
      "inputs": [],
      "name": "withdrawFunds",
      "outputs": [],
      "stateMutability": "nonpayable",
      "type": "function"
    },
    {
      "stateMutability": "payable",
      "type": "receive"
    }
  ],
  "bytecode": "0x60806040523480156200001157600080fd5b5033600073ffffffffffffffffffffffffffffffffffffffff168173ffffffffffffffffffffffffffffffffffffffff1603620000885760006040517f1e4fbdf70000000000000000000000000000000000000000000000000000000081526004016200007f9190620001d2565b60405180910390fd5b6200009981620000c960201b60201c565b5060008060146101000a81548160ff021916908315150217905550600180819055506000600481905550620001ef565b60008060009054906101000a900473ffffffffffffffffffffffffffffffffffffffff169050816000806101000a81548173ffffffffffffffffffffffffffffffffffffffff021916908373ffffffffffffffffffffffffffffffffffffffff1602179055508173ffffffffffffffffffffffffffffffffffffffff168173ffffffffffffffffffffffffffffffffffffffff167f8be0079c531659141344cd1fd0a4f28419497f9722a3daafe3b4186f6b6457e060405160405180910390a35050565b600073ffffffffffffffffffffffffffffffffffffffff82169050919050565b6000620001ba826200018d565b9050919050565b620001cc81620001ad565b82525050565b6000602082019050620001e96000830184620001c1565b92915050565b611fc680620001ff6000396000f3fe6080604052600436106100e15760003560e01c8063715018a61161007f578063c84c2b3e11610059578063c84c2b3e146102a9578063cb33fad1146102d2578063e952f74f14610315578063f2fde38b14610340576100e8565b8063715018a61461023e5780638da5cb5b14610255578063c162ce8114610280576100e8565b806324600fc3116100bb57806324600fc31461017c57806357f69799146101935780635c975abb146101d057806360db5082146101fb576100e8565b8063133199c8146100ed5780631d3971521461012a578063233d576714610153576100e8565b366100e857005b600080fd5b3480156100f957600080fd5b50610114600480360381019061010f91906111bb565b610369565b6040516101219190611216565b60405180910390f35b34801561013657600080fd5b50610151600480360381019061014c9190611231565b610398565b005b34801561015f57600080fd5b5061017a60048036038101906101759190611231565b6104a8565b005b34801561018857600080fd5b506101916105b7565b005b34801561019f57600080fd5b506101ba60048036038101906101b591906111bb565b6106f5565b6040516101c79190611216565b60405180910390f35b3480156101dc57600080fd5b506101e56107ae565b6040516101f29190611216565b60405180910390f35b34801561020757600080fd5b50610222600480360381019061021d9190611231565b6107c4565b60405161023597969594939291906112fd565b60405180910390f35b34801561024a57600080fd5b5061025361089b565b005b34801561026157600080fd5b5061026a6108af565b6040516102779190611382565b60405180910390f35b34801561028c57600080fd5b506102a760048036038101906102a291906114d2565b6108d8565b005b3480156102b557600080fd5b506102d060048036038101906102cb9190611231565b610a81565b005b3480156102de57600080fd5b506102f960048036038101906102f49190611231565b610d5c565b60405161030c97969594939291906112fd565b60405180910390f35b34801561032157600080fd5b5061032a610ea4565b6040516103379190611569565b60405180910390f35b34801561034c57600080fd5b5061036760048036038101906103629190611584565b610eaa565b005b60036020528160005260406000206020528060005260406000206000915091509054906101000a900460ff1681565b6103a0610f30565b60045481111580156103b25750600081115b6103f1576040517f08c379a00000000000000000000000000000000000000000000000000000000081526004016103e8906115fd565b60405180910390fd5b60006002600083815260200190815260200160002090508060050160009054906101000a900460ff161561045a576040517f08c379a000000000000000000000000000000000000000000000000000000000815260040161045190611669565b60405180910390fd5b60018160050160006101000a81548160ff021916908315150217905550817f8b3f142f6f776d19681f7858d8fad7e6507d99fb2b3300bf12086d2b45d162ac60405160405180910390a25050565b6104b0610f30565b60045481111580156104c25750600081115b610501576040517f08c379a00000000000000000000000000000000000000000000000000000000081526004016104f8906115fd565b60405180910390fd5b60006002600083815260200190815260200160002090508060050160009054906101000a900460ff16610569576040517f08c379a0000000000000000000000000000000000000000000000000000000008152600401610560906116d5565b60405180910390fd5b60008160050160006101000a81548160ff021916908315150217905550817fd0218370de96c92320c1b041236e50c1a973372d6349caad0010251649fa160160405160405180910390a25050565b6105bf610f30565b600047905060008111610607576040517f08c379a00000000000000000000000000000000000000000000000000000000081526004016105fe90611741565b60405180910390fd5b60006106116108af565b73ffffffffffffffffffffffffffffffffffffffff168260405161063490611792565b60006040518083038185875af1925050503d8060008114610671576040519150601f19603f3d011682016040523d82523d6000602084013e610676565b606091505b50509050806106ba576040517f08c379a00000000000000000000000000000000000000000000000000000000081526004016106b1906117f3565b60405180910390fd5b7f4a37b25aab49761ecf63117fe82b98d750917451133cf797507bc9fb5b96044a826040516106e99190611569565b60405180910390a15050565b600060045483111580156107095750600083115b610748576040517f08c379a000000000000000000000000000000000000000000000000000000000815260040161073f906115fd565b60405180910390fd5b6003600084815260200190815260200160002060008373ffffffffffffffffffffffffffffffffffffffff1673ffffffffffffffffffffffffffffffffffffffff16815260200190815260200160002060009054906101000a900460ff16905092915050565b60008060149054906101000a900460ff16905090565b60026020528060005260406000206000915090508060000180546107e790611842565b80601f016020809104026020016040519081016040528092919081815260200182805461081390611842565b80156108605780601f1061083557610100808354040283529160200191610860565b820191906000526020600020905b81548152906001019060200180831161084357829003601f168201915b5050505050908060010154908060020154908060030154908060040154908060050160009054906101000a900460ff16908060060154905087565b6108a3610f30565b6108ad6000610fb7565b565b60008060009054906101000a900473ffffffffffffffffffffffffffffffffffffffff16905090565b6108e0610f30565b428211610922576040517f08c379a0000000000000000000000000000000000000000000000000000000008152600401610919906118e5565b60405180910390fd5b818111610964576040517f08c379a000000000000000000000000000000000000000000000000000000000815260040161095b90611977565b60405180910390fd5b6000841180156109745750600083115b6109b3576040517f08c379a00000000000000000000000000000000000000000000000000000000081526004016109aa90611a09565b60405180910390fd5b600460008154809291906109c690611a58565b919050555060006002600060045481526020019081526020016000209050858160000190816109f59190611c4c565b5084816001018190555083816002018190555082816003018190555081816004018190555060018160050160006101000a81548160ff0219169083151502179055506004547ffa1a724d81a272899f44223d166f2b3919b79aee866fe0e9201ad8dca9ec9ad48787878787604051610a71959493929190611d1e565b60405180910390a2505050505050565b610a8961107b565b610a916110bc565b6004548111158015610aa35750600081115b610ae2576040517f08c379a0000000000000000000000000000000000000000000000000000000008152600401610ad9906115fd565b60405180910390fd5b60006002600083815260200190815260200160002090508060050160009054906101000a900460ff16610b4a576040517f08c379a0000000000000000000000000000000000000000000000000000000008152600401610b4190611dc4565b60405180910390fd5b8060030154421115610b91576040517f08c379a0000000000000000000000000000000000000000000000000000000008152600401610b8890611e30565b60405180910390fd5b6003600083815260200190815260200160002060003373ffffffffffffffffffffffffffffffffffffffff1673ffffffffffffffffffffffffffffffffffffffff16815260200190815260200160002060009054906101000a900460ff1615610c2f576040517f08c379a0000000000000000000000000000000000000000000000000000000008152600401610c2690611ec2565b60405180910390fd5b806001015481600201548260060154610c489190611ee2565b1115610c89576040517f08c379a0000000000000000000000000000000000000000000000000000000008152600401610c8090611f70565b60405180910390fd5b60016003600084815260200190815260200160002060003373ffffffffffffffffffffffffffffffffffffffff1673ffffffffffffffffffffffffffffffffffffffff16815260200190815260200160002060006101000a81548160ff021916908315150217905550806006016000815480929190610d0790611a58565b91905055503373ffffffffffffffffffffffffffffffffffffffff16827fb442efe467d2ef30e62927a3cae0afcbc799a8a0944d8a143332e4e5e51cee5d60405160405180910390a350610d59611102565b50565b60606000806000806000806004548811158015610d795750600088115b610db8576040517f08c379a0000000000000000000000000000000000000000000000000000000008152600401610daf906115fd565b60405180910390fd5b6000600260008a815260200190815260200160002090508060000181600101548260020154836003015484600401548560050160009054906101000a900460ff168660060154868054610e0a90611842565b80601f0160208091040260200160405190810160405280929190818152602001828054610e3690611842565b8015610e835780601f10610e5857610100808354040283529160200191610e83565b820191906000526020600020905b815481529060010190602001808311610e6657829003601f168201915b50505050509650975097509750975097509750975050919395979092949650565b60045481565b610eb2610f30565b600073ffffffffffffffffffffffffffffffffffffffff168173ffffffffffffffffffffffffffffffffffffffff1603610f245760006040517f1e4fbdf7000000000000000000000000000000000000000000000000000000008152600401610f1b9190611382565b60405180910390fd5b610f2d81610fb7565b50565b610f3861110b565b73ffffffffffffffffffffffffffffffffffffffff16610f566108af565b73ffffffffffffffffffffffffffffffffffffffff1614610fb557610f7961110b565b6040517f118cdaa7000000000000000000000000000000000000000000000000000000008152600401610fac9190611382565b60405180910390fd5b565b60008060009054906101000a900473ffffffffffffffffffffffffffffffffffffffff169050816000806101000a81548173ffffffffffffffffffffffffffffffffffffffff021916908373ffffffffffffffffffffffffffffffffffffffff1602179055508173ffffffffffffffffffffffffffffffffffffffff168173ffffffffffffffffffffffffffffffffffffffff167f8be0079c531659141344cd1fd0a4f28419497f9722a3daafe3b4186f6b6457e060405160405180910390a35050565b6110836107ae565b156110ba576040517fd93c066500000000000000000000000000000000000000000000000000000000815260040160405180910390fd5b565b6002600154036110f8576040517f3ee5aeb500000000000000000000000000000000000000000000000000000000815260040160405180910390fd5b6002600181905550565b60018081905550565b600033905090565b6000604051905090565b600080fd5b600080fd5b6000819050919050565b61113a81611127565b811461114557600080fd5b50565b60008135905061115781611131565b92915050565b600073ffffffffffffffffffffffffffffffffffffffff82169050919050565b60006111888261115d565b9050919050565b6111988161117d565b81146111a357600080fd5b50565b6000813590506111b58161118f565b92915050565b600080604083850312156111d2576111d161111d565b5b60006111e085828601611148565b92505060206111f1858286016111a6565b9150509250929050565b60008115159050919050565b611210816111fb565b82525050565b600060208201905061122b6000830184611207565b92915050565b6000602082840312156112475761124661111d565b5b600061125584828501611148565b91505092915050565b600081519050919050565b600082825260208201905092915050565b60005b8381101561129857808201518184015260208101905061127d565b60008484015250505050565b6000601f19601f8301169050919050565b60006112c08261125e565b6112ca8185611269565b93506112da81856020860161127a565b6112e3816112a4565b840191505092915050565b6112f781611127565b82525050565b600060e0820190508181036000830152611317818a6112b5565b905061132660208301896112ee565b61133360408301886112ee565b61134060608301876112ee565b61134d60808301866112ee565b61135a60a0830185611207565b61136760c08301846112ee565b98975050505050505050565b61137c8161117d565b82525050565b60006020820190506113976000830184611373565b92915050565b600080fd5b600080fd5b7f4e487b7100000000000000000000000000000000000000000000000000000000600052604160045260246000fd5b6113df826112a4565b810181811067ffffffffffffffff821117156113fe576113fd6113a7565b5b80604052505050565b6000611411611113565b905061141d82826113d6565b919050565b600067ffffffffffffffff82111561143d5761143c6113a7565b5b611446826112a4565b9050602081019050919050565b82818337600083830152505050565b600061147561147084611422565b611407565b905082815260208101848484011115611491576114906113a2565b5b61149c848285611453565b509392505050565b600082601f8301126114b9576114b861139d565b5b81356114c9848260208601611462565b91505092915050565b600080600080600060a086880312156114ee576114ed61111d565b5b600086013567ffffffffffffffff81111561150c5761150b611122565b5b611518888289016114a4565b955050602061152988828901611148565b945050604061153a88828901611148565b935050606061154b88828901611148565b925050608061155c88828901611148565b9150509295509295909350565b600060208201905061157e60008301846112ee565b92915050565b60006020828403121561159a5761159961111d565b5b60006115a8848285016111a6565b91505092915050565b7f496e76616c69642061697264726f702049440000000000000000000000000000600082015250565b60006115e7601283611269565b91506115f2826115b1565b602082019050919050565b60006020820190508181036000830152611616816115da565b9050919050565b7f41697264726f7020697320616c72656164792061637469766500000000000000600082015250565b6000611653601983611269565b915061165e8261161d565b602082019050919050565b6000602082019050818103600083015261168281611646565b9050919050565b7f41697264726f7020697320616c72656164792070617573656400000000000000600082015250565b60006116bf601983611269565b91506116ca82611689565b602082019050919050565b600060208201905081810360008301526116ee816116b2565b9050919050565b7f4e6f2066756e647320746f207769746864726177000000000000000000000000600082015250565b600061172b601483611269565b9150611736826116f5565b602082019050919050565b6000602082019050818103600083015261175a8161171e565b9050919050565b600081905092915050565b50565b600061177c600083611761565b91506117878261176c565b600082019050919050565b600061179d8261176f565b9150819050919050565b7f5769746864726177616c206661696c6564000000000000000000000000000000600082015250565b60006117dd601183611269565b91506117e8826117a7565b602082019050919050565b6000602082019050818103600083015261180c816117d0565b9050919050565b7f4e487b7100000000000000000000000000000000000000000000000000000000600052602260045260246000fd5b6000600282049050600182168061185a57607f821691505b60208210810361186d5761186c611813565b5b50919050565b7f526567697374726174696f6e20646561646c696e65206d75737420626520696e60008201527f2074686520667574757265000000000000000000000000000000000000000000602082015250565b60006118cf602b83611269565b91506118da82611873565b604082019050919050565b600060208201905081810360008301526118fe816118c2565b9050919050565b7f446973747269627574696f6e2064617465206d7573742062652061667465722060008201527f726567697374726174696f6e20646561646c696e650000000000000000000000602082015250565b6000611961603583611269565b915061196c82611905565b604082019050919050565b6000602082019050818103600083015261199081611954565b9050919050565b7f416c6c6f636174696f6e73206d7573742062652067726561746572207468616e60008201527f2030000000000000000000000000000000000000000000000000000000000000602082015250565b60006119f3602283611269565b91506119fe82611997565b604082019050919050565b60006020820190508181036000830152611a22816119e6565b9050919050565b7f4e487b7100000000000000000000000000000000000000000000000000000000600052601160045260246000fd5b6000611a6382611127565b91507fffffffffffffffffffffffffffffffffffffffffffffffffffffffffffffffff8203611a9557611a94611a29565b5b600182019050919050565b60008190508160005260206000209050919050565b60006020601f8301049050919050565b600082821b905092915050565b600060088302611b027fffffffffffffffffffffffffffffffffffffffffffffffffffffffffffffffff82611ac5565b611b0c8683611ac5565b95508019841693508086168417925050509392505050565b6000819050919050565b6000611b49611b44611b3f84611127565b611b24565b611127565b9050919050565b6000819050919050565b611b6383611b2e565b611b77611b6f82611b50565b848454611ad2565b825550505050565b600090565b611b8c611b7f565b611b97818484611b5a565b505050565b5b81811015611bbb57611bb0600082611b84565b600181019050611b9d565b5050565b601f821115611c0057611bd181611aa0565b611bda84611ab5565b81016020851015611be9578190505b611bfd611bf585611ab5565b830182611b9c565b50505b505050565b600082821c905092915050565b6000611c2360001984600802611c05565b1980831691505092915050565b6000611c3c8383611c12565b9150826002028217905092915050565b611c558261125e565b67ffffffffffffffff811115611c6e57611c6d6113a7565b5b611c788254611842565b611c83828285611bbf565b600060209050601f831160018114611cb65760008415611ca4578287015190505b611cae8582611c30565b865550611d16565b601f198416611cc486611aa0565b60005b82811015611cec57848901518255600182019150602085019450602081019050611cc7565b86831015611d095784890151611d05601f891682611c12565b8355505b6001600288020188555050505b505050505050565b600060a0820190508181036000830152611d3881886112b5565b9050611d4760208301876112ee565b611d5460408301866112ee565b611d6160608301856112ee565b611d6e60808301846112ee565b9695505050505050565b7f41697264726f70206973206e6f74206163746976650000000000000000000000600082015250565b6000611dae601583611269565b9150611db982611d78565b602082019050919050565b60006020820190508181036000830152611ddd81611da1565b9050919050565b7f526567697374726174696f6e20706572696f642068617320656e646564000000600082015250565b6000611e1a601d83611269565b9150611e2582611de4565b602082019050919050565b60006020820190508181036000830152611e4981611e0d565b9050919050565b7f416c7265616479207265676973746572656420666f722074686973206169726460008201527f726f700000000000000000000000000000000000000000000000000000000000602082015250565b6000611eac602383611269565b9150611eb782611e50565b604082019050919050565b60006020820190508181036000830152611edb81611e9f565b9050919050565b6000611eed82611127565b9150611ef883611127565b9250828202611f0681611127565b91508282048414831517611f1d57611f1c611a29565b5b5092915050565b7f41697264726f702069732066756c6c0000000000000000000000000000000000600082015250565b6000611f5a600f83611269565b9150611f6582611f24565b602082019050919050565b60006020820190508181036000830152611f8981611f4d565b905091905056fea2646970667358221220ab8c35e3c8f066b550d06d9d0b8ab84e780b3481a2bba0680756660cd0d2470d64736f6c63430008140033",
  "linkReferences": {},
  "deployedLinkReferences": {}
}